{
  "contractName": "Escrow",
  "abi": [
    {
      "inputs": [
        {
          "internalType": "address payable",
          "name": "_payer",
          "type": "address"
        },
        {
          "internalType": "address payable",
          "name": "_recipent",
          "type": "address"
        },
        {
          "internalType": "uint256",
          "name": "_amount",
          "type": "uint256"
        }
      ],
      "stateMutability": "nonpayable",
      "type": "constructor"
    },
    {
      "inputs": [],
      "name": "amount",
      "outputs": [
        {
          "internalType": "uint256",
          "name": "",
          "type": "uint256"
        }
      ],
      "stateMutability": "view",
      "type": "function"
    },
    {
      "inputs": [],
      "name": "payer",
      "outputs": [
        {
          "internalType": "address payable",
          "name": "",
          "type": "address"
        }
      ],
      "stateMutability": "view",
      "type": "function"
    },
    {
      "inputs": [],
      "name": "recipient",
      "outputs": [
        {
          "internalType": "address payable",
          "name": "",
          "type": "address"
        }
      ],
      "stateMutability": "view",
      "type": "function"
    },
    {
      "inputs": [],
      "name": "deposit",
      "outputs": [],
      "stateMutability": "payable",
      "type": "function"
    },
    {
      "inputs": [],
      "name": "sendFunds",
      "outputs": [],
      "stateMutability": "nonpayable",
      "type": "function"
    },
    {
      "inputs": [],
      "name": "balanceOf",
      "outputs": [
        {
          "internalType": "uint256",
          "name": "",
          "type": "uint256"
        }
      ],
      "stateMutability": "view",
      "type": "function"
    }
  ],
  "bytecode": "0x608060405234801561001057600080fd5b506040516109223803806109228339818101604052810190610032919061019c565b826000806101000a81548173ffffffffffffffffffffffffffffffffffffffff021916908373ffffffffffffffffffffffffffffffffffffffff1602179055508060038190555033600160006101000a81548173ffffffffffffffffffffffffffffffffffffffff021916908373ffffffffffffffffffffffffffffffffffffffff16021790555081600260006101000a81548173ffffffffffffffffffffffffffffffffffffffff021916908373ffffffffffffffffffffffffffffffffffffffff1602179055505050506101ef565b600080fd5b600073ffffffffffffffffffffffffffffffffffffffff82169050919050565b600061013382610108565b9050919050565b61014381610128565b811461014e57600080fd5b50565b6000815190506101608161013a565b92915050565b6000819050919050565b61017981610166565b811461018457600080fd5b50565b60008151905061019681610170565b92915050565b6000806000606084860312156101b5576101b4610103565b5b60006101c386828701610151565b93505060206101d486828701610151565b92505060406101e586828701610187565b9150509250925092565b610724806101fe6000396000f3fe6080604052600436106100555760003560e01c8063123119cd1461005a57806366d003ac14610085578063722713f7146100b05780638d68cf59146100db578063aa8c217c146100f2578063d0e30db01461011d575b600080fd5b34801561006657600080fd5b5061006f610127565b60405161007c91906103d4565b60405180910390f35b34801561009157600080fd5b5061009a61014b565b6040516100a791906103d4565b60405180910390f35b3480156100bc57600080fd5b506100c5610171565b6040516100d29190610408565b60405180910390f35b3480156100e757600080fd5b506100f0610179565b005b3480156100fe57600080fd5b506101076102b8565b6040516101149190610408565b60405180910390f35b6101256102be565b005b60008054906101000a900473ffffffffffffffffffffffffffffffffffffffff1681565b600260009054906101000a900473ffffffffffffffffffffffffffffffffffffffff1681565b600047905090565b600160009054906101000a900473ffffffffffffffffffffffffffffffffffffffff1673ffffffffffffffffffffffffffffffffffffffff163373ffffffffffffffffffffffffffffffffffffffff1614610209576040517f08c379a0000000000000000000000000000000000000000000000000000000008152600401610200906104a6565b60405180910390fd5b600354471461024d576040517f08c379a000000000000000000000000000000000000000000000000000000000815260040161024490610584565b60405180910390fd5b600260009054906101000a900473ffffffffffffffffffffffffffffffffffffffff1673ffffffffffffffffffffffffffffffffffffffff166108fc479081150290604051600060405180830381858888f193505050501580156102b5573d6000803e3d6000fd5b50565b60035481565b60008054906101000a900473ffffffffffffffffffffffffffffffffffffffff1673ffffffffffffffffffffffffffffffffffffffff163373ffffffffffffffffffffffffffffffffffffffff161461034c576040517f08c379a000000000000000000000000000000000000000000000000000000000815260040161034390610616565b60405180910390fd5b600354471115610391576040517f08c379a0000000000000000000000000000000000000000000000000000000008152600401610388906106ce565b60405180910390fd5b565b600073ffffffffffffffffffffffffffffffffffffffff82169050919050565b60006103be82610393565b9050919050565b6103ce816103b3565b82525050565b60006020820190506103e960008301846103c5565b92915050565b6000819050919050565b610402816103ef565b82525050565b600060208201905061041d60008301846103f9565b92915050565b600082825260208201905092915050565b7f4f6e6c7920746865206465706c6f796572206f662074686520657363726f772060008201527f63616e2065786563757465207468697320666e202e0000000000000000000000602082015250565b6000610490603583610423565b915061049b82610434565b604082019050919050565b600060208201905081810360008301526104bf81610483565b9050919050565b7f2054686520657363726f7720646f6573206e6f7420636f6e7461696e2074686560008201527f20616d6f756e74206f662066756e64732c20726571756573746564206279207460208201527f686520726563697069656e742e20506c65617365206164642066756e6473207460408201527f6f206d617463682074686520616d6f756e74207661726961626c652000000000606082015250565b600061056e607c83610423565b9150610579826104c6565b608082019050919050565b6000602082019050818103600083015261059d81610561565b9050919050565b7f4f6e6c79207468652070617965722063616e206465706f7369742066756e647360008201527f20696e746f2074686520657363726f7700000000000000000000000000000000602082015250565b6000610600603083610423565b915061060b826105a4565b604082019050919050565b6000602082019050818103600083015261062f816105f3565b9050919050565b7f5468652062616c616e6365206f662074686520657363726f772077696c6c206560008201527f78636565642074686520616d6f756e742072657175657374656420627920746860208201527f6520726563697069656e74000000000000000000000000000000000000000000604082015250565b60006106b8604b83610423565b91506106c382610636565b606082019050919050565b600060208201905081810360008301526106e7816106ab565b905091905056fea26469706673582212206f444c25bcf6aafd702f6f98f0d97b39697614d357148e1169d81a07a63afae664736f6c634300080f0033",
  "immutableReferences": {},
  "source": "pragma solidity 0.8.15;\n\ncontract Escrow {\n    address payable public payer;\n    address intermediary;             //the deployer of the contract \n    address payable public  recipient;\n    uint public amount ;\n\nconstructor ( address payable _payer, address payable _recipent, uint _amount)  {\n    payer = _payer;\n    amount=_amount;\n    intermediary = msg.sender;\n    recipient = _recipent;\n\n}\n\nfunction deposit () payable external {\n    require (msg.sender ==payer ,\"Only the payer can deposit funds into the escrow\");\n    require(address(this).balance <=amount, \"The balance of the escrow will exceed the amount requested by the recipient\");           // the balance of the contract must not exceed the \"amount\" var - a.k.a it should not exceed what is requested by the recipient\n\n}\n\nfunction sendFunds () external {\n    require (msg.sender == intermediary, \"Only the deployer of the escrow can execute this fn .\");\n    require (address(this).balance == amount, \" The escrow does not contain the amount of funds, requested by the recipient. Please add funds to match the amount variable \");\n    recipient.transfer(address(this).balance);          \n}   \n\n\nfunction balanceOf () public view returns (uint) {\n    return address(this).balance;\n    }\n\n}",
  "sourcePath": "/Users/petartodorov/Desktop/coding/solidity/Dapp30/escrow/contracts/Escrow.sol",
  "compiler": {
    "name": "solc",
    "version": "0.8.15+commit.e14f2714.Emscripten.clang"
  },
  "schemaVersion": "3.4.8",
  "updatedAt": "2022-08-18T14:04:32.771Z",
  "devdoc": {
    "kind": "dev",
    "methods": {},
    "version": 1
  },
  "userdoc": {
    "kind": "user",
    "methods": {},
    "version": 1
  }
}